{
	"data": {
		"bytecode": {
			"linkReferences": {},
			"object": "6080604052348015600f57600080fd5b5061068c8061001f6000396000f3fe608060405234801561001057600080fd5b50600436106100415760003560e01c80631329569b146100465780639deed0fb14610076578063e8b1e40b14610092575b600080fd5b610060600480360381019061005b919061032a565b6100ae565b60405161006d919061038c565b60405180910390f35b610090600480360381019061008b91906103d3565b6100d5565b005b6100ac60048036038101906100a7919061045e565b6101a9565b005b600080826040516100bf919061052b565b9081526020016040518091039020549050919050565b806000846040516100e6919061052b565b90815260200160405180910390205410610169578060008460405161010b919061052b565b908152602001604051809103902060008282546101289190610571565b9250508190555080600083604051610140919061052b565b9081526020016040518091039020600082825461015d91906105a5565b925050819055506101a4565b6040517f08c379a000000000000000000000000000000000000000000000000000000000815260040161019b90610636565b60405180910390fd5b505050565b806000836040516101ba919061052b565b9081526020016040518091039020819055505050565b6000604051905090565b600080fd5b600080fd5b600080fd5b600080fd5b6000601f19601f8301169050919050565b7f4e487b7100000000000000000000000000000000000000000000000000000000600052604160045260246000fd5b610237826101ee565b810181811067ffffffffffffffff82111715610256576102556101ff565b5b80604052505050565b60006102696101d0565b9050610275828261022e565b919050565b600067ffffffffffffffff821115610295576102946101ff565b5b61029e826101ee565b9050602081019050919050565b82818337600083830152505050565b60006102cd6102c88461027a565b61025f565b9050828152602081018484840111156102e9576102e86101e9565b5b6102f48482856102ab565b509392505050565b600082601f830112610311576103106101e4565b5b81356103218482602086016102ba565b91505092915050565b6000602082840312156103405761033f6101da565b5b600082013567ffffffffffffffff81111561035e5761035d6101df565b5b61036a848285016102fc565b91505092915050565b6000819050919050565b61038681610373565b82525050565b60006020820190506103a1600083018461037d565b92915050565b6103b081610373565b81146103bb57600080fd5b50565b6000813590506103cd816103a7565b92915050565b6000806000606084860312156103ec576103eb6101da565b5b600084013567ffffffffffffffff81111561040a576104096101df565b5b610416868287016102fc565b935050602084013567ffffffffffffffff811115610437576104366101df565b5b610443868287016102fc565b9250506040610454868287016103be565b9150509250925092565b60008060408385031215610475576104746101da565b5b600083013567ffffffffffffffff811115610493576104926101df565b5b61049f858286016102fc565b92505060206104b0858286016103be565b9150509250929050565b600081519050919050565b600081905092915050565b60005b838110156104ee5780820151818401526020810190506104d3565b60008484015250505050565b6000610505826104ba565b61050f81856104c5565b935061051f8185602086016104d0565b80840191505092915050565b600061053782846104fa565b915081905092915050565b7f4e487b7100000000000000000000000000000000000000000000000000000000600052601160045260246000fd5b600061057c82610373565b915061058783610373565b925082820390508181111561059f5761059e610542565b5b92915050565b60006105b082610373565b91506105bb83610373565b92508282019050808211156105d3576105d2610542565b5b92915050565b600082825260208201905092915050565b7f6e6f7420656e6f7567682062616c616e63650000000000000000000000000000600082015250565b60006106206012836105d9565b915061062b826105ea565b602082019050919050565b6000602082019050818103600083015261064f81610613565b905091905056fea26469706673582212200c1979eb37481100f433e1e78a99cfabb64c855e37cb6be458516279031942a064736f6c634300081a0033",
			"opcodes": "PUSH1 0x80 PUSH1 0x40 MSTORE CALLVALUE DUP1 ISZERO PUSH1 0xF JUMPI PUSH1 0x0 DUP1 REVERT JUMPDEST POP PUSH2 0x68C DUP1 PUSH2 0x1F PUSH1 0x0 CODECOPY PUSH1 0x0 RETURN INVALID PUSH1 0x80 PUSH1 0x40 MSTORE CALLVALUE DUP1 ISZERO PUSH2 0x10 JUMPI PUSH1 0x0 DUP1 REVERT JUMPDEST POP PUSH1 0x4 CALLDATASIZE LT PUSH2 0x41 JUMPI PUSH1 0x0 CALLDATALOAD PUSH1 0xE0 SHR DUP1 PUSH4 0x1329569B EQ PUSH2 0x46 JUMPI DUP1 PUSH4 0x9DEED0FB EQ PUSH2 0x76 JUMPI DUP1 PUSH4 0xE8B1E40B EQ PUSH2 0x92 JUMPI JUMPDEST PUSH1 0x0 DUP1 REVERT JUMPDEST PUSH2 0x60 PUSH1 0x4 DUP1 CALLDATASIZE SUB DUP2 ADD SWAP1 PUSH2 0x5B SWAP2 SWAP1 PUSH2 0x32A JUMP JUMPDEST PUSH2 0xAE JUMP JUMPDEST PUSH1 0x40 MLOAD PUSH2 0x6D SWAP2 SWAP1 PUSH2 0x38C JUMP JUMPDEST PUSH1 0x40 MLOAD DUP1 SWAP2 SUB SWAP1 RETURN JUMPDEST PUSH2 0x90 PUSH1 0x4 DUP1 CALLDATASIZE SUB DUP2 ADD SWAP1 PUSH2 0x8B SWAP2 SWAP1 PUSH2 0x3D3 JUMP JUMPDEST PUSH2 0xD5 JUMP JUMPDEST STOP JUMPDEST PUSH2 0xAC PUSH1 0x4 DUP1 CALLDATASIZE SUB DUP2 ADD SWAP1 PUSH2 0xA7 SWAP2 SWAP1 PUSH2 0x45E JUMP JUMPDEST PUSH2 0x1A9 JUMP JUMPDEST STOP JUMPDEST PUSH1 0x0 DUP1 DUP3 PUSH1 0x40 MLOAD PUSH2 0xBF SWAP2 SWAP1 PUSH2 0x52B JUMP JUMPDEST SWAP1 DUP2 MSTORE PUSH1 0x20 ADD PUSH1 0x40 MLOAD DUP1 SWAP2 SUB SWAP1 KECCAK256 SLOAD SWAP1 POP SWAP2 SWAP1 POP JUMP JUMPDEST DUP1 PUSH1 0x0 DUP5 PUSH1 0x40 MLOAD PUSH2 0xE6 SWAP2 SWAP1 PUSH2 0x52B JUMP JUMPDEST SWAP1 DUP2 MSTORE PUSH1 0x20 ADD PUSH1 0x40 MLOAD DUP1 SWAP2 SUB SWAP1 KECCAK256 SLOAD LT PUSH2 0x169 JUMPI DUP1 PUSH1 0x0 DUP5 PUSH1 0x40 MLOAD PUSH2 0x10B SWAP2 SWAP1 PUSH2 0x52B JUMP JUMPDEST SWAP1 DUP2 MSTORE PUSH1 0x20 ADD PUSH1 0x40 MLOAD DUP1 SWAP2 SUB SWAP1 KECCAK256 PUSH1 0x0 DUP3 DUP3 SLOAD PUSH2 0x128 SWAP2 SWAP1 PUSH2 0x571 JUMP JUMPDEST SWAP3 POP POP DUP2 SWAP1 SSTORE POP DUP1 PUSH1 0x0 DUP4 PUSH1 0x40 MLOAD PUSH2 0x140 SWAP2 SWAP1 PUSH2 0x52B JUMP JUMPDEST SWAP1 DUP2 MSTORE PUSH1 0x20 ADD PUSH1 0x40 MLOAD DUP1 SWAP2 SUB SWAP1 KECCAK256 PUSH1 0x0 DUP3 DUP3 SLOAD PUSH2 0x15D SWAP2 SWAP1 PUSH2 0x5A5 JUMP JUMPDEST SWAP3 POP POP DUP2 SWAP1 SSTORE POP PUSH2 0x1A4 JUMP JUMPDEST PUSH1 0x40 MLOAD PUSH32 0x8C379A000000000000000000000000000000000000000000000000000000000 DUP2 MSTORE PUSH1 0x4 ADD PUSH2 0x19B SWAP1 PUSH2 0x636 JUMP JUMPDEST PUSH1 0x40 MLOAD DUP1 SWAP2 SUB SWAP1 REVERT JUMPDEST POP POP POP JUMP JUMPDEST DUP1 PUSH1 0x0 DUP4 PUSH1 0x40 MLOAD PUSH2 0x1BA SWAP2 SWAP1 PUSH2 0x52B JUMP JUMPDEST SWAP1 DUP2 MSTORE PUSH1 0x20 ADD PUSH1 0x40 MLOAD DUP1 SWAP2 SUB SWAP1 KECCAK256 DUP2 SWAP1 SSTORE POP POP POP JUMP JUMPDEST PUSH1 0x0 PUSH1 0x40 MLOAD SWAP1 POP SWAP1 JUMP JUMPDEST PUSH1 0x0 DUP1 REVERT JUMPDEST PUSH1 0x0 DUP1 REVERT JUMPDEST PUSH1 0x0 DUP1 REVERT JUMPDEST PUSH1 0x0 DUP1 REVERT JUMPDEST PUSH1 0x0 PUSH1 0x1F NOT PUSH1 0x1F DUP4 ADD AND SWAP1 POP SWAP2 SWAP1 POP JUMP JUMPDEST PUSH32 0x4E487B7100000000000000000000000000000000000000000000000000000000 PUSH1 0x0 MSTORE PUSH1 0x41 PUSH1 0x4 MSTORE PUSH1 0x24 PUSH1 0x0 REVERT JUMPDEST PUSH2 0x237 DUP3 PUSH2 0x1EE JUMP JUMPDEST DUP2 ADD DUP2 DUP2 LT PUSH8 0xFFFFFFFFFFFFFFFF DUP3 GT OR ISZERO PUSH2 0x256 JUMPI PUSH2 0x255 PUSH2 0x1FF JUMP JUMPDEST JUMPDEST DUP1 PUSH1 0x40 MSTORE POP POP POP JUMP JUMPDEST PUSH1 0x0 PUSH2 0x269 PUSH2 0x1D0 JUMP JUMPDEST SWAP1 POP PUSH2 0x275 DUP3 DUP3 PUSH2 0x22E JUMP JUMPDEST SWAP2 SWAP1 POP JUMP JUMPDEST PUSH1 0x0 PUSH8 0xFFFFFFFFFFFFFFFF DUP3 GT ISZERO PUSH2 0x295 JUMPI PUSH2 0x294 PUSH2 0x1FF JUMP JUMPDEST JUMPDEST PUSH2 0x29E DUP3 PUSH2 0x1EE JUMP JUMPDEST SWAP1 POP PUSH1 0x20 DUP2 ADD SWAP1 POP SWAP2 SWAP1 POP JUMP JUMPDEST DUP3 DUP2 DUP4 CALLDATACOPY PUSH1 0x0 DUP4 DUP4 ADD MSTORE POP POP POP JUMP JUMPDEST PUSH1 0x0 PUSH2 0x2CD PUSH2 0x2C8 DUP5 PUSH2 0x27A JUMP JUMPDEST PUSH2 0x25F JUMP JUMPDEST SWAP1 POP DUP3 DUP2 MSTORE PUSH1 0x20 DUP2 ADD DUP5 DUP5 DUP5 ADD GT ISZERO PUSH2 0x2E9 JUMPI PUSH2 0x2E8 PUSH2 0x1E9 JUMP JUMPDEST JUMPDEST PUSH2 0x2F4 DUP5 DUP3 DUP6 PUSH2 0x2AB JUMP JUMPDEST POP SWAP4 SWAP3 POP POP POP JUMP JUMPDEST PUSH1 0x0 DUP3 PUSH1 0x1F DUP4 ADD SLT PUSH2 0x311 JUMPI PUSH2 0x310 PUSH2 0x1E4 JUMP JUMPDEST JUMPDEST DUP2 CALLDATALOAD PUSH2 0x321 DUP5 DUP3 PUSH1 0x20 DUP7 ADD PUSH2 0x2BA JUMP JUMPDEST SWAP2 POP POP SWAP3 SWAP2 POP POP JUMP JUMPDEST PUSH1 0x0 PUSH1 0x20 DUP3 DUP5 SUB SLT ISZERO PUSH2 0x340 JUMPI PUSH2 0x33F PUSH2 0x1DA JUMP JUMPDEST JUMPDEST PUSH1 0x0 DUP3 ADD CALLDATALOAD PUSH8 0xFFFFFFFFFFFFFFFF DUP2 GT ISZERO PUSH2 0x35E JUMPI PUSH2 0x35D PUSH2 0x1DF JUMP JUMPDEST JUMPDEST PUSH2 0x36A DUP5 DUP3 DUP6 ADD PUSH2 0x2FC JUMP JUMPDEST SWAP2 POP POP SWAP3 SWAP2 POP POP JUMP JUMPDEST PUSH1 0x0 DUP2 SWAP1 POP SWAP2 SWAP1 POP JUMP JUMPDEST PUSH2 0x386 DUP2 PUSH2 0x373 JUMP JUMPDEST DUP3 MSTORE POP POP JUMP JUMPDEST PUSH1 0x0 PUSH1 0x20 DUP3 ADD SWAP1 POP PUSH2 0x3A1 PUSH1 0x0 DUP4 ADD DUP5 PUSH2 0x37D JUMP JUMPDEST SWAP3 SWAP2 POP POP JUMP JUMPDEST PUSH2 0x3B0 DUP2 PUSH2 0x373 JUMP JUMPDEST DUP2 EQ PUSH2 0x3BB JUMPI PUSH1 0x0 DUP1 REVERT JUMPDEST POP JUMP JUMPDEST PUSH1 0x0 DUP2 CALLDATALOAD SWAP1 POP PUSH2 0x3CD DUP2 PUSH2 0x3A7 JUMP JUMPDEST SWAP3 SWAP2 POP POP JUMP JUMPDEST PUSH1 0x0 DUP1 PUSH1 0x0 PUSH1 0x60 DUP5 DUP7 SUB SLT ISZERO PUSH2 0x3EC JUMPI PUSH2 0x3EB PUSH2 0x1DA JUMP JUMPDEST JUMPDEST PUSH1 0x0 DUP5 ADD CALLDATALOAD PUSH8 0xFFFFFFFFFFFFFFFF DUP2 GT ISZERO PUSH2 0x40A JUMPI PUSH2 0x409 PUSH2 0x1DF JUMP JUMPDEST JUMPDEST PUSH2 0x416 DUP7 DUP3 DUP8 ADD PUSH2 0x2FC JUMP JUMPDEST SWAP4 POP POP PUSH1 0x20 DUP5 ADD CALLDATALOAD PUSH8 0xFFFFFFFFFFFFFFFF DUP2 GT ISZERO PUSH2 0x437 JUMPI PUSH2 0x436 PUSH2 0x1DF JUMP JUMPDEST JUMPDEST PUSH2 0x443 DUP7 DUP3 DUP8 ADD PUSH2 0x2FC JUMP JUMPDEST SWAP3 POP POP PUSH1 0x40 PUSH2 0x454 DUP7 DUP3 DUP8 ADD PUSH2 0x3BE JUMP JUMPDEST SWAP2 POP POP SWAP3 POP SWAP3 POP SWAP3 JUMP JUMPDEST PUSH1 0x0 DUP1 PUSH1 0x40 DUP4 DUP6 SUB SLT ISZERO PUSH2 0x475 JUMPI PUSH2 0x474 PUSH2 0x1DA JUMP JUMPDEST JUMPDEST PUSH1 0x0 DUP4 ADD CALLDATALOAD PUSH8 0xFFFFFFFFFFFFFFFF DUP2 GT ISZERO PUSH2 0x493 JUMPI PUSH2 0x492 PUSH2 0x1DF JUMP JUMPDEST JUMPDEST PUSH2 0x49F DUP6 DUP3 DUP7 ADD PUSH2 0x2FC JUMP JUMPDEST SWAP3 POP POP PUSH1 0x20 PUSH2 0x4B0 DUP6 DUP3 DUP7 ADD PUSH2 0x3BE JUMP JUMPDEST SWAP2 POP POP SWAP3 POP SWAP3 SWAP1 POP JUMP JUMPDEST PUSH1 0x0 DUP2 MLOAD SWAP1 POP SWAP2 SWAP1 POP JUMP JUMPDEST PUSH1 0x0 DUP2 SWAP1 POP SWAP3 SWAP2 POP POP JUMP JUMPDEST PUSH1 0x0 JUMPDEST DUP4 DUP2 LT ISZERO PUSH2 0x4EE JUMPI DUP1 DUP3 ADD MLOAD DUP2 DUP5 ADD MSTORE PUSH1 0x20 DUP2 ADD SWAP1 POP PUSH2 0x4D3 JUMP JUMPDEST PUSH1 0x0 DUP5 DUP5 ADD MSTORE POP POP POP POP JUMP JUMPDEST PUSH1 0x0 PUSH2 0x505 DUP3 PUSH2 0x4BA JUMP JUMPDEST PUSH2 0x50F DUP2 DUP6 PUSH2 0x4C5 JUMP JUMPDEST SWAP4 POP PUSH2 0x51F DUP2 DUP6 PUSH1 0x20 DUP7 ADD PUSH2 0x4D0 JUMP JUMPDEST DUP1 DUP5 ADD SWAP2 POP POP SWAP3 SWAP2 POP POP JUMP JUMPDEST PUSH1 0x0 PUSH2 0x537 DUP3 DUP5 PUSH2 0x4FA JUMP JUMPDEST SWAP2 POP DUP2 SWAP1 POP SWAP3 SWAP2 POP POP JUMP JUMPDEST PUSH32 0x4E487B7100000000000000000000000000000000000000000000000000000000 PUSH1 0x0 MSTORE PUSH1 0x11 PUSH1 0x4 MSTORE PUSH1 0x24 PUSH1 0x0 REVERT JUMPDEST PUSH1 0x0 PUSH2 0x57C DUP3 PUSH2 0x373 JUMP JUMPDEST SWAP2 POP PUSH2 0x587 DUP4 PUSH2 0x373 JUMP JUMPDEST SWAP3 POP DUP3 DUP3 SUB SWAP1 POP DUP2 DUP2 GT ISZERO PUSH2 0x59F JUMPI PUSH2 0x59E PUSH2 0x542 JUMP JUMPDEST JUMPDEST SWAP3 SWAP2 POP POP JUMP JUMPDEST PUSH1 0x0 PUSH2 0x5B0 DUP3 PUSH2 0x373 JUMP JUMPDEST SWAP2 POP PUSH2 0x5BB DUP4 PUSH2 0x373 JUMP JUMPDEST SWAP3 POP DUP3 DUP3 ADD SWAP1 POP DUP1 DUP3 GT ISZERO PUSH2 0x5D3 JUMPI PUSH2 0x5D2 PUSH2 0x542 JUMP JUMPDEST JUMPDEST SWAP3 SWAP2 POP POP JUMP JUMPDEST PUSH1 0x0 DUP3 DUP3 MSTORE PUSH1 0x20 DUP3 ADD SWAP1 POP SWAP3 SWAP2 POP POP JUMP JUMPDEST PUSH32 0x6E6F7420656E6F7567682062616C616E63650000000000000000000000000000 PUSH1 0x0 DUP3 ADD MSTORE POP JUMP JUMPDEST PUSH1 0x0 PUSH2 0x620 PUSH1 0x12 DUP4 PUSH2 0x5D9 JUMP JUMPDEST SWAP2 POP PUSH2 0x62B DUP3 PUSH2 0x5EA JUMP JUMPDEST PUSH1 0x20 DUP3 ADD SWAP1 POP SWAP2 SWAP1 POP JUMP JUMPDEST PUSH1 0x0 PUSH1 0x20 DUP3 ADD SWAP1 POP DUP2 DUP2 SUB PUSH1 0x0 DUP4 ADD MSTORE PUSH2 0x64F DUP2 PUSH2 0x613 JUMP JUMPDEST SWAP1 POP SWAP2 SWAP1 POP JUMP INVALID LOG2 PUSH5 0x6970667358 0x22 SLT KECCAK256 0xC NOT PUSH26 0xEB37481100F433E1E78A99CFABB64C855E37CB6BE45851627903 NOT TIMESTAMP LOG0 PUSH5 0x736F6C6343 STOP ADDMOD BYTE STOP CALLER "
		},
		"gasEstimates": {
			"creation": {
				"codeDepositCost": "335200",
				"executionCost": "374",
				"totalCost": "335574"
			},
			"external": {
				"checkBal(string)": "infinite",
				"regUser(string,uint256)": "infinite",
				"transBal(string,string,uint256)": "infinite"
			}
		},
		"methodIdentifiers": {
			"checkBal(string)": "1329569b",
			"regUser(string,uint256)": "e8b1e40b",
			"transBal(string,string,uint256)": "9deed0fb"
		}
	},
	"abi": [
		{
			"inputs": [
				{
					"internalType": "string",
					"name": "_name",
					"type": "string"
				}
			],
			"name": "checkBal",
			"outputs": [
				{
					"internalType": "uint256",
					"name": "",
					"type": "uint256"
				}
			],
			"stateMutability": "view",
			"type": "function"
		},
		{
			"inputs": [
				{
					"internalType": "string",
					"name": "_name",
					"type": "string"
				},
				{
					"internalType": "uint256",
					"name": "_bal",
					"type": "uint256"
				}
			],
			"name": "regUser",
			"outputs": [],
			"stateMutability": "nonpayable",
			"type": "function"
		},
		{
			"inputs": [
				{
					"internalType": "string",
					"name": "_from",
					"type": "string"
				},
				{
					"internalType": "string",
					"name": "_to",
					"type": "string"
				},
				{
					"internalType": "uint256",
					"name": "_amount",
					"type": "uint256"
				}
			],
			"name": "transBal",
			"outputs": [],
			"stateMutability": "nonpayable",
			"type": "function"
		}
	]
}